{
  "_format": "hh-sol-artifact-1",
  "contractName": "MyEpicNFT",
  "sourceName": "contracts/MyEpicNFT.sol",
  "abi": [
    {
      "inputs": [],
      "stateMutability": "nonpayable",
      "type": "constructor"
    },
    {
      "anonymous": false,
      "inputs": [
        {
          "indexed": true,
          "internalType": "address",
          "name": "owner",
          "type": "address"
        },
        {
          "indexed": true,
          "internalType": "address",
          "name": "approved",
          "type": "address"
        },
        {
          "indexed": true,
          "internalType": "uint256",
          "name": "tokenId",
          "type": "uint256"
        }
      ],
      "name": "Approval",
      "type": "event"
    },
    {
      "anonymous": false,
      "inputs": [
        {
          "indexed": true,
          "internalType": "address",
          "name": "owner",
          "type": "address"
        },
        {
          "indexed": true,
          "internalType": "address",
          "name": "operator",
          "type": "address"
        },
        {
          "indexed": false,
          "internalType": "bool",
          "name": "approved",
          "type": "bool"
        }
      ],
      "name": "ApprovalForAll",
      "type": "event"
    },
    {
      "anonymous": false,
      "inputs": [
        {
          "indexed": false,
          "internalType": "address",
          "name": "sender",
          "type": "address"
        },
        {
          "indexed": false,
          "internalType": "uint256",
          "name": "tokenId",
          "type": "uint256"
        }
      ],
      "name": "NewEpicNFTMinted",
      "type": "event"
    },
    {
      "anonymous": false,
      "inputs": [
        {
          "indexed": true,
          "internalType": "address",
          "name": "from",
          "type": "address"
        },
        {
          "indexed": true,
          "internalType": "address",
          "name": "to",
          "type": "address"
        },
        {
          "indexed": true,
          "internalType": "uint256",
          "name": "tokenId",
          "type": "uint256"
        }
      ],
      "name": "Transfer",
      "type": "event"
    },
    {
      "inputs": [],
      "name": "MAX_SUPPLY",
      "outputs": [
        {
          "internalType": "uint256",
          "name": "",
          "type": "uint256"
        }
      ],
      "stateMutability": "view",
      "type": "function"
    },
    {
      "inputs": [
        {
          "internalType": "address",
          "name": "to",
          "type": "address"
        },
        {
          "internalType": "uint256",
          "name": "tokenId",
          "type": "uint256"
        }
      ],
      "name": "approve",
      "outputs": [],
      "stateMutability": "nonpayable",
      "type": "function"
    },
    {
      "inputs": [
        {
          "internalType": "address",
          "name": "owner",
          "type": "address"
        }
      ],
      "name": "balanceOf",
      "outputs": [
        {
          "internalType": "uint256",
          "name": "",
          "type": "uint256"
        }
      ],
      "stateMutability": "view",
      "type": "function"
    },
    {
      "inputs": [
        {
          "internalType": "uint256",
          "name": "tokenId",
          "type": "uint256"
        }
      ],
      "name": "getApproved",
      "outputs": [
        {
          "internalType": "address",
          "name": "",
          "type": "address"
        }
      ],
      "stateMutability": "view",
      "type": "function"
    },
    {
      "inputs": [],
      "name": "getTotalNFTsMinted",
      "outputs": [
        {
          "internalType": "uint256",
          "name": "",
          "type": "uint256"
        }
      ],
      "stateMutability": "view",
      "type": "function"
    },
    {
      "inputs": [
        {
          "internalType": "address",
          "name": "owner",
          "type": "address"
        },
        {
          "internalType": "address",
          "name": "operator",
          "type": "address"
        }
      ],
      "name": "isApprovedForAll",
      "outputs": [
        {
          "internalType": "bool",
          "name": "",
          "type": "bool"
        }
      ],
      "stateMutability": "view",
      "type": "function"
    },
    {
      "inputs": [],
      "name": "makeAnEpicNFT",
      "outputs": [],
      "stateMutability": "nonpayable",
      "type": "function"
    },
    {
      "inputs": [],
      "name": "name",
      "outputs": [
        {
          "internalType": "string",
          "name": "",
          "type": "string"
        }
      ],
      "stateMutability": "view",
      "type": "function"
    },
    {
      "inputs": [
        {
          "internalType": "uint256",
          "name": "tokenId",
          "type": "uint256"
        }
      ],
      "name": "ownerOf",
      "outputs": [
        {
          "internalType": "address",
          "name": "",
          "type": "address"
        }
      ],
      "stateMutability": "view",
      "type": "function"
    },
    {
      "inputs": [
        {
          "internalType": "uint256",
          "name": "tokenId",
          "type": "uint256"
        }
      ],
      "name": "pickRandomBackground",
      "outputs": [
        {
          "internalType": "string",
          "name": "",
          "type": "string"
        }
      ],
      "stateMutability": "view",
      "type": "function"
    },
    {
      "inputs": [
        {
          "internalType": "uint256",
          "name": "tokenId",
          "type": "uint256"
        }
      ],
      "name": "pickRandomFirstWord",
      "outputs": [
        {
          "internalType": "string",
          "name": "",
          "type": "string"
        }
      ],
      "stateMutability": "view",
      "type": "function"
    },
    {
      "inputs": [
        {
          "internalType": "uint256",
          "name": "tokenId",
          "type": "uint256"
        }
      ],
      "name": "pickRandomSecondWord",
      "outputs": [
        {
          "internalType": "string",
          "name": "",
          "type": "string"
        }
      ],
      "stateMutability": "view",
      "type": "function"
    },
    {
      "inputs": [
        {
          "internalType": "address",
          "name": "from",
          "type": "address"
        },
        {
          "internalType": "address",
          "name": "to",
          "type": "address"
        },
        {
          "internalType": "uint256",
          "name": "tokenId",
          "type": "uint256"
        }
      ],
      "name": "safeTransferFrom",
      "outputs": [],
      "stateMutability": "nonpayable",
      "type": "function"
    },
    {
      "inputs": [
        {
          "internalType": "address",
          "name": "from",
          "type": "address"
        },
        {
          "internalType": "address",
          "name": "to",
          "type": "address"
        },
        {
          "internalType": "uint256",
          "name": "tokenId",
          "type": "uint256"
        },
        {
          "internalType": "bytes",
          "name": "_data",
          "type": "bytes"
        }
      ],
      "name": "safeTransferFrom",
      "outputs": [],
      "stateMutability": "nonpayable",
      "type": "function"
    },
    {
      "inputs": [
        {
          "internalType": "address",
          "name": "operator",
          "type": "address"
        },
        {
          "internalType": "bool",
          "name": "approved",
          "type": "bool"
        }
      ],
      "name": "setApprovalForAll",
      "outputs": [],
      "stateMutability": "nonpayable",
      "type": "function"
    },
    {
      "inputs": [
        {
          "internalType": "bytes4",
          "name": "interfaceId",
          "type": "bytes4"
        }
      ],
      "name": "supportsInterface",
      "outputs": [
        {
          "internalType": "bool",
          "name": "",
          "type": "bool"
        }
      ],
      "stateMutability": "view",
      "type": "function"
    },
    {
      "inputs": [],
      "name": "symbol",
      "outputs": [
        {
          "internalType": "string",
          "name": "",
          "type": "string"
        }
      ],
      "stateMutability": "view",
      "type": "function"
    },
    {
      "inputs": [
        {
          "internalType": "uint256",
          "name": "tokenId",
          "type": "uint256"
        }
      ],
      "name": "tokenURI",
      "outputs": [
        {
          "internalType": "string",
          "name": "",
          "type": "string"
        }
      ],
      "stateMutability": "view",
      "type": "function"
    },
    {
      "inputs": [
        {
          "internalType": "address",
          "name": "from",
          "type": "address"
        },
        {
          "internalType": "address",
          "name": "to",
          "type": "address"
        },
        {
          "internalType": "uint256",
          "name": "tokenId",
          "type": "uint256"
        }
      ],
      "name": "transferFrom",
      "outputs": [],
      "stateMutability": "nonpayable",
      "type": "function"
    }
  ],
  "bytecode": "0x608060405260405180610120016040528060e48152602001620047bf60e49139600890805190602001906200003692919062000600565b506040518060e0016040528060b281526020016200454060b29139600990805190602001906200006892919062000600565b506040518061014001604052806101198152602001620046a66101199139600a90805190602001906200009d92919062000600565b506040518060400160405280600d81526020017f3c2f746578743e3c2f7376673e00000000000000000000000000000000000000815250600b9080519060200190620000eb92919062000600565b506040518060a00160405280604051806101a001604052806101788152602001620048a361017891398152602001604051806101e001604052806101a58152602001620041df6101a59139815260200160405180610160016040528061012b815260200162004a1b61012b913981526020016040518060e0016040528060b48152602001620045f260b491398152602001604051806101e001604052806101bc8152602001620043846101bc9139815250600c906005620001ae92919062000691565b506040518060a001604052806040518060400160405280600781526020017f42756c6c6973680000000000000000000000000000000000000000000000000081525081526020016040518060400160405280600781526020017f426561726973680000000000000000000000000000000000000000000000000081525081526020016040518060400160405280600481526020017f457069630000000000000000000000000000000000000000000000000000000081525081526020016040518060400160405280600681526020017f526f636b6574000000000000000000000000000000000000000000000000000081525081526020016040518060400160405280600381526020017f4469700000000000000000000000000000000000000000000000000000000000815250815250600d906005620002f192919062000691565b506040518060a001604052806040518060400160405280600381526020017f455448000000000000000000000000000000000000000000000000000000000081525081526020016040518060400160405280600381526020017f425443000000000000000000000000000000000000000000000000000000000081525081526020016040518060400160405280600381526020017f444f54000000000000000000000000000000000000000000000000000000000081525081526020016040518060400160405280600481526020017f4c554e410000000000000000000000000000000000000000000000000000000081525081526020016040518060400160405280600381526020017f5645540000000000000000000000000000000000000000000000000000000000815250815250600e9060056200043492919062000691565b503480156200044257600080fd5b506040518060400160405280600881526020017f4d6f6368694e46540000000000000000000000000000000000000000000000008152506040518060400160405280600581526020017f4d4f4348490000000000000000000000000000000000000000000000000000008152508160009080519060200190620004c792919062000600565b508060019080519060200190620004e092919062000600565b5050506200052e6040518060400160405280600581526020017f47756175210000000000000000000000000000000000000000000000000000008152506200053460201b620012df1760201c565b620008b2565b620005d4816040516024016200054b9190620007c6565b6040516020818303038152906040527f41304fac000000000000000000000000000000000000000000000000000000007bffffffffffffffffffffffffffffffffffffffffffffffffffffffff19166020820180517bffffffffffffffffffffffffffffffffffffffffffffffffffffffff8381831617835250505050620005d760201b60201c565b50565b60008151905060006a636f6e736f6c652e6c6f679050602083016000808483855afa5050505050565b8280546200060e906200083c565b90600052602060002090601f0160209004810192826200063257600085556200067e565b82601f106200064d57805160ff19168380011785556200067e565b828001600101855582156200067e579182015b828111156200067d57825182559160200191906001019062000660565b5b5090506200068d9190620006f8565b5090565b828054828255906000526020600020908101928215620006e5579160200282015b82811115620006e4578251829080519060200190620006d392919062000600565b5091602001919060010190620006b2565b5b509050620006f4919062000717565b5090565b5b8082111562000713576000816000905550600101620006f9565b5090565b5b808211156200073b57600081816200073191906200073f565b5060010162000718565b5090565b5080546200074d906200083c565b6000825580601f1062000761575062000782565b601f016020900490600052602060002090810190620007819190620006f8565b5b50565b60006200079282620007ea565b6200079e8185620007f5565b9350620007b081856020860162000806565b620007bb81620008a1565b840191505092915050565b60006020820190508181036000830152620007e2818462000785565b905092915050565b600081519050919050565b600082825260208201905092915050565b60005b838110156200082657808201518184015260208101905062000809565b8381111562000836576000848401525b50505050565b600060028204905060018216806200085557607f821691505b602082108114156200086c576200086b62000872565b5b50919050565b7f4e487b7100000000000000000000000000000000000000000000000000000000600052602260045260246000fd5b6000601f19601f8301169050919050565b61391d80620008c26000396000f3fe608060405234801561001057600080fd5b50600436106101215760003560e01c80636352211e116100ad578063b4c3b8be11610071578063b4c3b8be14610340578063b88d4fde1461035e578063c87b56dd1461037a578063de9d132f146103aa578063e985e9c5146103b457610121565b80636352211e1461027657806370a08231146102a657806395d89b41146102d6578063a22cb465146102f4578063b187301f1461031057610121565b806323b872dd116100f457806323b872dd146101c05780632de38d68146101dc57806332cb6b0c1461020c57806342842e0e1461022a5780635068d1de1461024657610121565b806301ffc9a71461012657806306fdde0314610156578063081812fc14610174578063095ea7b3146101a4575b600080fd5b610140600480360381019061013b9190612572565b6103e4565b60405161014d9190613173565b60405180910390f35b61015e6104c6565b60405161016b919061318e565b60405180910390f35b61018e600480360381019061018991906125c4565b610558565b60405161019b91906130e3565b60405180910390f35b6101be60048036038101906101b99190612536565b6105dd565b005b6101da60048036038101906101d59190612430565b6106f5565b005b6101f660048036038101906101f191906125c4565b610755565b604051610203919061318e565b60405180910390f35b610214610873565b604051610221919061340e565b60405180910390f35b610244600480360381019061023f9190612430565b610878565b005b610260600480360381019061025b91906125c4565b610898565b60405161026d919061318e565b60405180910390f35b610290600480360381019061028b91906125c4565b6109b6565b60405161029d91906130e3565b60405180910390f35b6102c060048036038101906102bb91906123cb565b610a68565b6040516102cd919061340e565b60405180910390f35b6102de610b20565b6040516102eb919061318e565b60405180910390f35b61030e600480360381019061030991906124fa565b610bb2565b005b61032a600480360381019061032591906125c4565b610d33565b604051610337919061318e565b60405180910390f35b610348610e51565b604051610355919061340e565b60405180910390f35b6103786004803603810190610373919061247f565b610e62565b005b610394600480360381019061038f91906125c4565b610ec4565b6040516103a1919061318e565b60405180910390f35b6103b2611016565b005b6103ce60048036038101906103c991906123f4565b61124b565b6040516103db9190613173565b60405180910390f35b60007f80ac58cd000000000000000000000000000000000000000000000000000000007bffffffffffffffffffffffffffffffffffffffffffffffffffffffff1916827bffffffffffffffffffffffffffffffffffffffffffffffffffffffff191614806104af57507f5b5e139f000000000000000000000000000000000000000000000000000000007bffffffffffffffffffffffffffffffffffffffffffffffffffffffff1916827bffffffffffffffffffffffffffffffffffffffffffffffffffffffff1916145b806104bf57506104be82611378565b5b9050919050565b6060600080546104d5906136ad565b80601f0160208091040260200160405190810160405280929190818152602001828054610501906136ad565b801561054e5780601f106105235761010080835404028352916020019161054e565b820191906000526020600020905b81548152906001019060200180831161053157829003601f168201915b5050505050905090565b6000610563826113e2565b6105a2576040517f08c379a00000000000000000000000000000000000000000000000000000000081526004016105999061334e565b60405180910390fd5b6004600083815260200190815260200160002060009054906101000a900473ffffffffffffffffffffffffffffffffffffffff169050919050565b60006105e8826109b6565b90508073ffffffffffffffffffffffffffffffffffffffff168373ffffffffffffffffffffffffffffffffffffffff161415610659576040517f08c379a0000000000000000000000000000000000000000000000000000000008152600401610650906133ce565b60405180910390fd5b8073ffffffffffffffffffffffffffffffffffffffff1661067861144e565b73ffffffffffffffffffffffffffffffffffffffff1614806106a757506106a6816106a161144e565b61124b565b5b6106e6576040517f08c379a00000000000000000000000000000000000000000000000000000000081526004016106dd9061328e565b60405180910390fd5b6106f08383611456565b505050565b61070661070061144e565b8261150f565b610745576040517f08c379a000000000000000000000000000000000000000000000000000000000815260040161073c906133ee565b60405180910390fd5b6107508383836115ed565b505050565b6060600061078961076584611849565b604051602001610775919061307d565b6040516020818303038152906040526119f6565b9050600d805490508161079c9190613728565b9050600d81815481106107d8577f4e487b7100000000000000000000000000000000000000000000000000000000600052603260045260246000fd5b9060005260206000200180546107ed906136ad565b80601f0160208091040260200160405190810160405280929190818152602001828054610819906136ad565b80156108665780601f1061083b57610100808354040283529160200191610866565b820191906000526020600020905b81548152906001019060200180831161084957829003601f168201915b5050505050915050919050565b606481565b61089383838360405180602001604052806000815250610e62565b505050565b606060006108cc6108a884611849565b6040516020016108b891906130c1565b6040516020818303038152906040526119f6565b9050600c80549050816108df9190613728565b9050600c818154811061091b577f4e487b7100000000000000000000000000000000000000000000000000000000600052603260045260246000fd5b906000526020600020018054610930906136ad565b80601f016020809104026020016040519081016040528092919081815260200182805461095c906136ad565b80156109a95780601f1061097e576101008083540402835291602001916109a9565b820191906000526020600020905b81548152906001019060200180831161098c57829003601f168201915b5050505050915050919050565b6000806002600084815260200190815260200160002060009054906101000a900473ffffffffffffffffffffffffffffffffffffffff169050600073ffffffffffffffffffffffffffffffffffffffff168173ffffffffffffffffffffffffffffffffffffffff161415610a5f576040517f08c379a0000000000000000000000000000000000000000000000000000000008152600401610a56906132ce565b60405180910390fd5b80915050919050565b60008073ffffffffffffffffffffffffffffffffffffffff168273ffffffffffffffffffffffffffffffffffffffff161415610ad9576040517f08c379a0000000000000000000000000000000000000000000000000000000008152600401610ad0906132ae565b60405180910390fd5b600360008373ffffffffffffffffffffffffffffffffffffffff1673ffffffffffffffffffffffffffffffffffffffff168152602001908152602001600020549050919050565b606060018054610b2f906136ad565b80601f0160208091040260200160405190810160405280929190818152602001828054610b5b906136ad565b8015610ba85780601f10610b7d57610100808354040283529160200191610ba8565b820191906000526020600020905b815481529060010190602001808311610b8b57829003601f168201915b5050505050905090565b610bba61144e565b73ffffffffffffffffffffffffffffffffffffffff168273ffffffffffffffffffffffffffffffffffffffff161415610c28576040517f08c379a0000000000000000000000000000000000000000000000000000000008152600401610c1f9061324e565b60405180910390fd5b8060056000610c3561144e565b73ffffffffffffffffffffffffffffffffffffffff1673ffffffffffffffffffffffffffffffffffffffff16815260200190815260200160002060008473ffffffffffffffffffffffffffffffffffffffff1673ffffffffffffffffffffffffffffffffffffffff16815260200190815260200160002060006101000a81548160ff0219169083151502179055508173ffffffffffffffffffffffffffffffffffffffff16610ce261144e565b73ffffffffffffffffffffffffffffffffffffffff167f17307eab39ab6107e8899845ad3d59bd9653f200f220920489ca2b5937696c3183604051610d279190613173565b60405180910390a35050565b60606000610d67610d4384611849565b604051602001610d539190613016565b6040516020818303038152906040526119f6565b9050600e8054905081610d7a9190613728565b9050600e8181548110610db6577f4e487b7100000000000000000000000000000000000000000000000000000000600052603260045260246000fd5b906000526020600020018054610dcb906136ad565b80601f0160208091040260200160405190810160405280929190818152602001828054610df7906136ad565b8015610e445780601f10610e1957610100808354040283529160200191610e44565b820191906000526020600020905b815481529060010190602001808311610e2757829003601f168201915b5050505050915050919050565b6000610e5d6007611a29565b905090565b610e73610e6d61144e565b8361150f565b610eb2576040517f08c379a0000000000000000000000000000000000000000000000000000000008152600401610ea9906133ee565b60405180910390fd5b610ebe84848484611a37565b50505050565b6060610ecf826113e2565b610f0e576040517f08c379a0000000000000000000000000000000000000000000000000000000008152600401610f059061332e565b60405180910390fd5b6000600660008481526020019081526020016000208054610f2e906136ad565b80601f0160208091040260200160405190810160405280929190818152602001828054610f5a906136ad565b8015610fa75780601f10610f7c57610100808354040283529160200191610fa7565b820191906000526020600020905b815481529060010190602001808311610f8a57829003601f168201915b505050505090506000610fb8611a93565b9050600081511415610fce578192505050611011565b600082511115611003578082604051602001610feb929190612f8d565b60405160208183030381529060405292505050611011565b61100c84611aaa565b925050505b919050565b60006110226007611a29565b905060648110611067576040517f08c379a000000000000000000000000000000000000000000000000000000000815260040161105e906133ae565b60405180910390fd5b600061107282610898565b9050600061107f83610755565b9050600061108c84610d33565b9050600082826040516020016110a3929190612f8d565b604051602081830303815290604052905060006008856009600a8787600b6040516020016110d79796959493929190612fb1565b6040516020818303038152906040529050600061111c836110f784611b51565b604051602001611108929190613038565b604051602081830303815290604052611b51565b9050600081604051602001611131919061309f565b60405160208183030381529060405290506111806040518060400160405280601581526020017f0a2d2d2d2d2d2d2d2d2d2d2d2d2d2d2d2d2d2d2d2d00000000000000000000008152506112df565b611189816112df565b6111c76040518060400160405280601581526020017f2d2d2d2d2d2d2d2d2d2d2d2d2d2d2d2d2d2d2d2d0a00000000000000000000008152506112df565b6111d13389611d0f565b6111db8882611d2d565b6111fe604051806060016040528060258152602001613883602591398933611da1565b6112086007611e40565b7febb98688741ffa4c7589bf325de30cf7becb63de567842e1ccdb6cb949fdc82c338960405161123992919061314a565b60405180910390a15050505050505050565b6000600560008473ffffffffffffffffffffffffffffffffffffffff1673ffffffffffffffffffffffffffffffffffffffff16815260200190815260200160002060008373ffffffffffffffffffffffffffffffffffffffff1673ffffffffffffffffffffffffffffffffffffffff16815260200190815260200160002060009054906101000a900460ff16905092915050565b611375816040516024016112f3919061318e565b6040516020818303038152906040527f41304fac000000000000000000000000000000000000000000000000000000007bffffffffffffffffffffffffffffffffffffffffffffffffffffffff19166020820180517bffffffffffffffffffffffffffffffffffffffffffffffffffffffff8381831617835250505050611e56565b50565b60007f01ffc9a7000000000000000000000000000000000000000000000000000000007bffffffffffffffffffffffffffffffffffffffffffffffffffffffff1916827bffffffffffffffffffffffffffffffffffffffffffffffffffffffff1916149050919050565b60008073ffffffffffffffffffffffffffffffffffffffff166002600084815260200190815260200160002060009054906101000a900473ffffffffffffffffffffffffffffffffffffffff1673ffffffffffffffffffffffffffffffffffffffff1614159050919050565b600033905090565b816004600083815260200190815260200160002060006101000a81548173ffffffffffffffffffffffffffffffffffffffff021916908373ffffffffffffffffffffffffffffffffffffffff160217905550808273ffffffffffffffffffffffffffffffffffffffff166114c9836109b6565b73ffffffffffffffffffffffffffffffffffffffff167f8c5be1e5ebec7d5bd14f71427d1e84f3dd0314c0f7b2291e5b200ac8c7c3b92560405160405180910390a45050565b600061151a826113e2565b611559576040517f08c379a00000000000000000000000000000000000000000000000000000000081526004016115509061326e565b60405180910390fd5b6000611564836109b6565b90508073ffffffffffffffffffffffffffffffffffffffff168473ffffffffffffffffffffffffffffffffffffffff1614806115d357508373ffffffffffffffffffffffffffffffffffffffff166115bb84610558565b73ffffffffffffffffffffffffffffffffffffffff16145b806115e457506115e3818561124b565b5b91505092915050565b8273ffffffffffffffffffffffffffffffffffffffff1661160d826109b6565b73ffffffffffffffffffffffffffffffffffffffff1614611663576040517f08c379a000000000000000000000000000000000000000000000000000000000815260040161165a9061336e565b60405180910390fd5b600073ffffffffffffffffffffffffffffffffffffffff168273ffffffffffffffffffffffffffffffffffffffff1614156116d3576040517f08c379a00000000000000000000000000000000000000000000000000000000081526004016116ca9061322e565b60405180910390fd5b6116de838383611e7f565b6116e9600082611456565b6001600360008573ffffffffffffffffffffffffffffffffffffffff1673ffffffffffffffffffffffffffffffffffffffff168152602001908152602001600020600082825461173991906135c3565b925050819055506001600360008473ffffffffffffffffffffffffffffffffffffffff1673ffffffffffffffffffffffffffffffffffffffff168152602001908152602001600020600082825461179091906134e2565b92505081905550816002600083815260200190815260200160002060006101000a81548173ffffffffffffffffffffffffffffffffffffffff021916908373ffffffffffffffffffffffffffffffffffffffff160217905550808273ffffffffffffffffffffffffffffffffffffffff168473ffffffffffffffffffffffffffffffffffffffff167fddf252ad1be2c89b69c2b068fc378daa952ba7f163c4a11628f55a4df523b3ef60405160405180910390a4505050565b60606000821415611891576040518060400160405280600181526020017f300000000000000000000000000000000000000000000000000000000000000081525090506119f1565b600082905060005b600082146118c35780806118ac906136df565b915050600a826118bc9190613538565b9150611899565b60008167ffffffffffffffff811115611905577f4e487b7100000000000000000000000000000000000000000000000000000000600052604160045260246000fd5b6040519080825280601f01601f1916602001820160405280156119375781602001600182028036833780820191505090505b5090505b600085146119ea5760018261195091906135c3565b9150600a8561195f9190613728565b603061196b91906134e2565b60f81b8183815181106119a7577f4e487b7100000000000000000000000000000000000000000000000000000000600052603260045260246000fd5b60200101907effffffffffffffffffffffffffffffffffffffffffffffffffffffffffffff1916908160001a905350600a856119e39190613538565b945061193b565b8093505050505b919050565b600081604051602001611a099190612f76565b6040516020818303038152906040528051906020012060001c9050919050565b600081600001549050919050565b611a428484846115ed565b611a4e84848484611e84565b611a8d576040517f08c379a0000000000000000000000000000000000000000000000000000000008152600401611a84906131ee565b60405180910390fd5b50505050565b606060405180602001604052806000815250905090565b6060611ab5826113e2565b611af4576040517f08c379a0000000000000000000000000000000000000000000000000000000008152600401611aeb9061338e565b60405180910390fd5b6000611afe611a93565b90506000815111611b1e5760405180602001604052806000815250611b49565b80611b2884611849565b604051602001611b39929190612f8d565b6040516020818303038152906040525b915050919050565b60606000825190506000811415611b7a5760405180602001604052806000815250915050611d0a565b60006003600283611b8b91906134e2565b611b959190613538565b6004611ba19190613569565b90506000602082611bb291906134e2565b67ffffffffffffffff811115611bf1577f4e487b7100000000000000000000000000000000000000000000000000000000600052604160045260246000fd5b6040519080825280601f01601f191660200182016040528015611c235781602001600182028036833780820191505090505b50905060006040518060600160405280604081526020016138a8604091399050600181016020830160005b86811015611cc75760038101905062ffffff818a015116603f8160121c168401518060081b905060ff603f83600c1c1686015116810190508060081b905060ff603f8360061c1686015116810190508060081b905060ff603f831686015116810190508060e01b90508084526004840193505050611c4e565b506003860660018114611ce15760028114611cf157611cfc565b613d3d60f01b6002830352611cfc565b603d60f81b60018303525b508484525050819450505050505b919050565b611d2982826040518060200160405280600081525061201b565b5050565b611d36826113e2565b611d75576040517f08c379a0000000000000000000000000000000000000000000000000000000008152600401611d6c906132ee565b60405180910390fd5b80600660008481526020019081526020016000209080519060200190611d9c929190612257565b505050565b611e3b838383604051602401611db9939291906131b0565b6040516020818303038152906040527fe3849f79000000000000000000000000000000000000000000000000000000007bffffffffffffffffffffffffffffffffffffffffffffffffffffffff19166020820180517bffffffffffffffffffffffffffffffffffffffffffffffffffffffff8381831617835250505050611e56565b505050565b6001816000016000828254019250508190555050565b60008151905060006a636f6e736f6c652e6c6f679050602083016000808483855afa5050505050565b505050565b6000611ea58473ffffffffffffffffffffffffffffffffffffffff16612076565b1561200e578373ffffffffffffffffffffffffffffffffffffffff1663150b7a02611ece61144e565b8786866040518563ffffffff1660e01b8152600401611ef094939291906130fe565b602060405180830381600087803b158015611f0a57600080fd5b505af1925050508015611f3b57506040513d601f19601f82011682018060405250810190611f38919061259b565b60015b611fbe573d8060008114611f6b576040519150601f19603f3d011682016040523d82523d6000602084013e611f70565b606091505b50600081511415611fb6576040517f08c379a0000000000000000000000000000000000000000000000000000000008152600401611fad906131ee565b60405180910390fd5b805181602001fd5b63150b7a0260e01b7bffffffffffffffffffffffffffffffffffffffffffffffffffffffff1916817bffffffffffffffffffffffffffffffffffffffffffffffffffffffff191614915050612013565b600190505b949350505050565b6120258383612089565b6120326000848484611e84565b612071576040517f08c379a0000000000000000000000000000000000000000000000000000000008152600401612068906131ee565b60405180910390fd5b505050565b600080823b905060008111915050919050565b600073ffffffffffffffffffffffffffffffffffffffff168273ffffffffffffffffffffffffffffffffffffffff1614156120f9576040517f08c379a00000000000000000000000000000000000000000000000000000000081526004016120f09061330e565b60405180910390fd5b612102816113e2565b15612142576040517f08c379a00000000000000000000000000000000000000000000000000000000081526004016121399061320e565b60405180910390fd5b61214e60008383611e7f565b6001600360008473ffffffffffffffffffffffffffffffffffffffff1673ffffffffffffffffffffffffffffffffffffffff168152602001908152602001600020600082825461219e91906134e2565b92505081905550816002600083815260200190815260200160002060006101000a81548173ffffffffffffffffffffffffffffffffffffffff021916908373ffffffffffffffffffffffffffffffffffffffff160217905550808273ffffffffffffffffffffffffffffffffffffffff16600073ffffffffffffffffffffffffffffffffffffffff167fddf252ad1be2c89b69c2b068fc378daa952ba7f163c4a11628f55a4df523b3ef60405160405180910390a45050565b828054612263906136ad565b90600052602060002090601f01602090048101928261228557600085556122cc565b82601f1061229e57805160ff19168380011785556122cc565b828001600101855582156122cc579182015b828111156122cb5782518255916020019190600101906122b0565b5b5090506122d991906122dd565b5090565b5b808211156122f65760008160009055506001016122de565b5090565b600061230d6123088461345a565b613429565b90508281526020810184848401111561232557600080fd5b61233084828561366b565b509392505050565b60008135905061234781613826565b92915050565b60008135905061235c8161383d565b92915050565b60008135905061237181613854565b92915050565b60008151905061238681613854565b92915050565b600082601f83011261239d57600080fd5b81356123ad8482602086016122fa565b91505092915050565b6000813590506123c58161386b565b92915050565b6000602082840312156123dd57600080fd5b60006123eb84828501612338565b91505092915050565b6000806040838503121561240757600080fd5b600061241585828601612338565b925050602061242685828601612338565b9150509250929050565b60008060006060848603121561244557600080fd5b600061245386828701612338565b935050602061246486828701612338565b9250506040612475868287016123b6565b9150509250925092565b6000806000806080858703121561249557600080fd5b60006124a387828801612338565b94505060206124b487828801612338565b93505060406124c5878288016123b6565b925050606085013567ffffffffffffffff8111156124e257600080fd5b6124ee8782880161238c565b91505092959194509250565b6000806040838503121561250d57600080fd5b600061251b85828601612338565b925050602061252c8582860161234d565b9150509250929050565b6000806040838503121561254957600080fd5b600061255785828601612338565b9250506020612568858286016123b6565b9150509250929050565b60006020828403121561258457600080fd5b600061259284828501612362565b91505092915050565b6000602082840312156125ad57600080fd5b60006125bb84828501612377565b91505092915050565b6000602082840312156125d657600080fd5b60006125e4848285016123b6565b91505092915050565b6125f6816135f7565b82525050565b61260581613609565b82525050565b60006126168261349f565b61262081856134b5565b935061263081856020860161367a565b61263981613815565b840191505092915050565b600061264f826134aa565b61265981856134c6565b935061266981856020860161367a565b61267281613815565b840191505092915050565b6000612688826134aa565b61269281856134d7565b93506126a281856020860161367a565b80840191505092915050565b600081546126bb816136ad565b6126c581866134d7565b945060018216600081146126e057600181146126f157612724565b60ff19831686528186019350612724565b6126fa8561348a565b60005b8381101561271c578154818901526001820191506020810190506126fd565b838801955050505b50505092915050565b600061273a6032836134c6565b91507f4552433732313a207472616e7366657220746f206e6f6e20455243373231526560008301527f63656976657220696d706c656d656e74657200000000000000000000000000006020830152604082019050919050565b60006127a0601c836134c6565b91507f4552433732313a20746f6b656e20616c7265616479206d696e746564000000006000830152602082019050919050565b60006127e06024836134c6565b91507f4552433732313a207472616e7366657220746f20746865207a65726f2061646460008301527f72657373000000000000000000000000000000000000000000000000000000006020830152604082019050919050565b60006128466019836134c6565b91507f4552433732313a20617070726f766520746f2063616c6c6572000000000000006000830152602082019050919050565b6000612886600b836134d7565b91507f5345434f4e445f574f52440000000000000000000000000000000000000000006000830152600b82019050919050565b60006128c6602c836134c6565b91507f4552433732313a206f70657261746f7220717565727920666f72206e6f6e657860008301527f697374656e7420746f6b656e00000000000000000000000000000000000000006020830152604082019050919050565b600061292c6038836134c6565b91507f4552433732313a20617070726f76652063616c6c6572206973206e6f74206f7760008301527f6e6572206e6f7220617070726f76656420666f7220616c6c00000000000000006020830152604082019050919050565b6000612992602a836134c6565b91507f4552433732313a2062616c616e636520717565727920666f7220746865207a6560008301527f726f2061646472657373000000000000000000000000000000000000000000006020830152604082019050919050565b60006129f86029836134c6565b91507f4552433732313a206f776e657220717565727920666f72206e6f6e657869737460008301527f656e7420746f6b656e00000000000000000000000000000000000000000000006020830152604082019050919050565b6000612a5e602e836134c6565b91507f45524337323155524953746f726167653a2055524920736574206f66206e6f6e60008301527f6578697374656e7420746f6b656e0000000000000000000000000000000000006020830152604082019050919050565b6000612ac46002836134d7565b91507f227d0000000000000000000000000000000000000000000000000000000000006000830152600282019050919050565b6000612b046020836134c6565b91507f4552433732313a206d696e7420746f20746865207a65726f20616464726573736000830152602082019050919050565b6000612b446031836134c6565b91507f45524337323155524953746f726167653a2055524920717565727920666f722060008301527f6e6f6e6578697374656e7420746f6b656e0000000000000000000000000000006020830152604082019050919050565b6000612baa602c836134c6565b91507f4552433732313a20617070726f76656420717565727920666f72206e6f6e657860008301527f697374656e7420746f6b656e00000000000000000000000000000000000000006020830152604082019050919050565b6000612c106029836134c6565b91507f4552433732313a207472616e73666572206f6620746f6b656e2074686174206960008301527f73206e6f74206f776e00000000000000000000000000000000000000000000006020830152604082019050919050565b6000612c76602f836134c6565b91507f4552433732314d657461646174613a2055524920717565727920666f72206e6f60008301527f6e6578697374656e7420746f6b656e00000000000000000000000000000000006020830152604082019050919050565b6000612cdc600a836134d7565b91507f7b226e616d65223a2022000000000000000000000000000000000000000000006000830152600a82019050919050565b6000612d1c6014836134c6565b91507f416c6c204e4654732077657265206d696e7465640000000000000000000000006000830152602082019050919050565b6000612d5c6021836134c6565b91507f4552433732313a20617070726f76616c20746f2063757272656e74206f776e6560008301527f72000000000000000000000000000000000000000000000000000000000000006020830152604082019050919050565b6000612dc2600a836134d7565b91507f46495253545f574f5244000000000000000000000000000000000000000000006000830152600a82019050919050565b6000612e02601d836134d7565b91507f646174613a6170706c69636174696f6e2f6a736f6e3b6261736536342c0000006000830152601d82019050919050565b6000612e426031836134c6565b91507f4552433732313a207472616e736665722063616c6c6572206973206e6f74206f60008301527f776e6572206e6f7220617070726f7665640000000000000000000000000000006020830152604082019050919050565b6000612ea8600a836134d7565b91507f4241434b47524f554e44000000000000000000000000000000000000000000006000830152600a82019050919050565b6000612ee86059836134d7565b91507f222c20226465736372697074696f6e223a2022412072616e646f6d206665656c60008301527f696e67206f6e20736f6d6520746f6b656e73222c2022696d616765223a20226460208301527f6174613a696d6167652f7376672b786d6c3b6261736536342c000000000000006040830152605982019050919050565b612f7081613661565b82525050565b6000612f82828461267d565b915081905092915050565b6000612f99828561267d565b9150612fa5828461267d565b91508190509392505050565b6000612fbd828a6126ae565b9150612fc9828961267d565b9150612fd582886126ae565b9150612fe182876126ae565b9150612fed828661267d565b9150612ff9828561267d565b915061300582846126ae565b915081905098975050505050505050565b600061302182612879565b915061302d828461267d565b915081905092915050565b600061304382612ccf565b915061304f828561267d565b915061305a82612edb565b9150613066828461267d565b915061307182612ab7565b91508190509392505050565b600061308882612db5565b9150613094828461267d565b915081905092915050565b60006130aa82612df5565b91506130b6828461267d565b915081905092915050565b60006130cc82612e9b565b91506130d8828461267d565b915081905092915050565b60006020820190506130f860008301846125ed565b92915050565b600060808201905061311360008301876125ed565b61312060208301866125ed565b61312d6040830185612f67565b818103606083015261313f818461260b565b905095945050505050565b600060408201905061315f60008301856125ed565b61316c6020830184612f67565b9392505050565b600060208201905061318860008301846125fc565b92915050565b600060208201905081810360008301526131a88184612644565b905092915050565b600060608201905081810360008301526131ca8186612644565b90506131d96020830185612f67565b6131e660408301846125ed565b949350505050565b600060208201905081810360008301526132078161272d565b9050919050565b6000602082019050818103600083015261322781612793565b9050919050565b60006020820190508181036000830152613247816127d3565b9050919050565b6000602082019050818103600083015261326781612839565b9050919050565b60006020820190508181036000830152613287816128b9565b9050919050565b600060208201905081810360008301526132a78161291f565b9050919050565b600060208201905081810360008301526132c781612985565b9050919050565b600060208201905081810360008301526132e7816129eb565b9050919050565b6000602082019050818103600083015261330781612a51565b9050919050565b6000602082019050818103600083015261332781612af7565b9050919050565b6000602082019050818103600083015261334781612b37565b9050919050565b6000602082019050818103600083015261336781612b9d565b9050919050565b6000602082019050818103600083015261338781612c03565b9050919050565b600060208201905081810360008301526133a781612c69565b9050919050565b600060208201905081810360008301526133c781612d0f565b9050919050565b600060208201905081810360008301526133e781612d4f565b9050919050565b6000602082019050818103600083015261340781612e35565b9050919050565b60006020820190506134236000830184612f67565b92915050565b6000604051905081810181811067ffffffffffffffff821117156134505761344f6137e6565b5b8060405250919050565b600067ffffffffffffffff821115613475576134746137e6565b5b601f19601f8301169050602081019050919050565b60008190508160005260206000209050919050565b600081519050919050565b600081519050919050565b600082825260208201905092915050565b600082825260208201905092915050565b600081905092915050565b60006134ed82613661565b91506134f883613661565b9250827fffffffffffffffffffffffffffffffffffffffffffffffffffffffffffffffff0382111561352d5761352c613759565b5b828201905092915050565b600061354382613661565b915061354e83613661565b92508261355e5761355d613788565b5b828204905092915050565b600061357482613661565b915061357f83613661565b9250817fffffffffffffffffffffffffffffffffffffffffffffffffffffffffffffffff04831182151516156135b8576135b7613759565b5b828202905092915050565b60006135ce82613661565b91506135d983613661565b9250828210156135ec576135eb613759565b5b828203905092915050565b600061360282613641565b9050919050565b60008115159050919050565b60007fffffffff0000000000000000000000000000000000000000000000000000000082169050919050565b600073ffffffffffffffffffffffffffffffffffffffff82169050919050565b6000819050919050565b82818337600083830152505050565b60005b8381101561369857808201518184015260208101905061367d565b838111156136a7576000848401525b50505050565b600060028204905060018216806136c557607f821691505b602082108114156136d9576136d86137b7565b5b50919050565b60006136ea82613661565b91507fffffffffffffffffffffffffffffffffffffffffffffffffffffffffffffffff82141561371d5761371c613759565b5b600182019050919050565b600061373382613661565b915061373e83613661565b92508261374e5761374d613788565b5b828206905092915050565b7f4e487b7100000000000000000000000000000000000000000000000000000000600052601160045260246000fd5b7f4e487b7100000000000000000000000000000000000000000000000000000000600052601260045260246000fd5b7f4e487b7100000000000000000000000000000000000000000000000000000000600052602260045260246000fd5b7f4e487b7100000000000000000000000000000000000000000000000000000000600052604160045260246000fd5b6000601f19601f8301169050919050565b61382f816135f7565b811461383a57600080fd5b50565b61384681613609565b811461385157600080fd5b50565b61385d81613615565b811461386857600080fd5b50565b61387481613661565b811461387f57600080fd5b5056fe416e204e465420772f20494420257320686173206265656e206d696e74656420746f2025734142434445464748494a4b4c4d4e4f505152535455565758595a6162636465666768696a6b6c6d6e6f707172737475767778797a303132333435363738392b2fa2646970667358221220ec9289f5b293ab94823b9ed9ff6befd23f547f13bcede4fedbaf6612de75de5064736f6c634300080000333c726563742077696474683d273130302527206865696768743d2731303025272066696c6c3d2723326433373438272f3e3c636972636c652063783d273334272063793d2732302720723d2734272066696c6c3d2723346135353638272f3e3c636972636c652063783d2736272063793d2732302720723d2734272066696c6c3d2723346135353638272f3e3c636972636c652063783d273230272063793d2733342720723d2734272066696c6c3d2723346135353638272f3e3c636972636c652063783d273230272063793d27362720723d2734272066696c6c3d2723346135353638272f3e3c636972636c652063783d273334272063793d27362720723d2734272066696c6c3d2723316132303263272f3e3c636972636c652063783d2736272063793d2733342720723d2734272066696c6c3d2723316132303263272f3e3c636972636c652063783d273334272063793d2733342720723d2734272066696c6c3d2723316132303263272f3e3c636972636c652063783d2736272063793d27362720723d2734272066696c6c3d2723316132303263272f3e3c2f7061747465726e3e3c726563742077696474683d273130302527206865696768743d2731303025272066696c6c3d2723373032343539272f3e3c7061746820643d274d3020382e35612031312e352031312e352030203020312031312e352031312e356120382e3520382e3520302030203020382e3520382e357633612d31312e352d31312e352030203020312d31312e352d31312e35612d382e352d382e352030203020302d382e352d382e357a272066696c6c3d2723663665303565272f3e3c7061746820643d274d32302032382e356120382e352d382e3520302030203020382e352d382e35612031312e352d31312e352030203020312031312e352d31312e357633612d382e3520382e352030203020302d382e3520382e35612d31312e352031312e352030203020312d31312e352031312e357a4d32302036382e356120382e352d382e3520302030203020382e352d382e35612031312e352d31312e352030203020312031312e352d31312e357633612d382e3520382e352030203020302d382e3520382e35612d31312e352031312e352030203020312d31312e352031312e357a272066696c6c3d2723643639653265272f3e3c2f7061747465726e3e3c66696c74657220783d27302720793d2730272077696474683d273127206865696768743d2731272069643d27736f6c6964273e3c6665466c6f6f6420666c6f6f642d636f6c6f723d27626c61636b2720726573756c743d27626727202f3e3c66654d657267653e3c66654d657267654e6f646520696e3d276267272f3e3c66654d657267654e6f646520696e3d27536f7572636547726170686963272f3e3c2f66654d657267653e3c2f66696c7465723e3c726563742077696474683d273130302527206865696768743d2731303025272066696c6c3d2723316337656436272f3e3c7061746820643d274d2d31302033306836307634682d36307a4d2d31302d31306836307634682d3630272066696c6c3d2723666363343139272f3e3c7061746820643d274d2d31302031386836307634682d36307a4d2d31302d32326836307634682d36307a272066696c6c3d2723313836346162272f3e3c2f7061747465726e3e3c2f646566733e3c726563742066696c6c3d2775726c28237061747465726e2927206865696768743d2732303025272077696474683d2732303025272f3e3c7374796c653e2e62617365207b66696c6c3a2077686974653b20666f6e742d66616d696c793a205562756e74753b20666f6e742d73697a653a20313470783b20666f6e742d7765696768743a203730303b206261636b67726f756e642d636f6c6f723a626c61636b3b7d3c2f7374796c653e3c746578742066696c7465723d2775726c2823736f6c6964292720783d273530252720793d273530252720636c6173733d27626173652720646f6d696e616e742d626173656c696e653d276d6964646c652720746578742d616e63686f723d276d6964646c65273e3c73766720786d6c6e733d27687474703a2f2f7777772e77332e6f72672f323030302f73766727207072657365727665417370656374526174696f3d27784d696e594d696e206d656574272076696577426f783d273020302033353020333530273e3c646566733e3c7061747465726e2069643d277061747465726e272077696474683d27343027206865696768743d273430272076696577426f783d2730203020343020343027207061747465726e556e6974733d277573657253706163654f6e55736527207061747465726e5472616e73666f726d3d27726f74617465283029273e3c726563742077696474683d273130302527206865696768743d2731303025272066696c6c3d2723326134333635272f3e3c7061746820643d274d302032396120392d3920302030203020392d39612031312d31312030203020312031312d31317632612d3920392030203020302d392039612d31312031312030203020312d31312031317a4d302036396120392d3920302030203020392d39612031312d31312030203020312031312d31317632612d3920392030203020302d392039612d31312031312030203020312d31312031317a272066696c6c3d2723316132303263272f3e3c7061746820643d274d32302032392e356120392e352d392e3520302030203020392e352d392e35612031302e352d31302e352030203020312031302e352d31302e357631612d392e3520392e352030203020302d392e3520392e35612d31302e352031302e352030203020312d31302e352031302e357a272066696c6c3d2723656363393462272f3e3c2f7061747465726e3e3c726563742077696474683d273130302527206865696768743d2731303025272066696c6c3d2723354434303337272f3e3c7061746820643d274d30203430682d3130762d36306836304c343020304c33342036682d32387632387a272066696c6c3d2723334532373233272f3e3c7061746820643d274d343020307631306836307636304c302034304c36203334683238762d32387a272066696c6c3d2723373935353438272f3e3c7061746820643d274d343020307631306836307636304c302034304c30203430683430762d34307a272066696c6c3d2723334532373233272f3e3c7061746820643d274d30203430682d3130762d36306836304c343020304c34302030682d34307634307a272066696c6c3d2723373935353438272f3e3c2f7061747465726e3e",
  "linkReferences": {},
  "deployedLinkReferences": {}
}