{
    "_format": "hh-sol-artifact-1",
    "contractName": "MyEpicNFT",
    "sourceName": "contracts/MyEpicNFT.sol",
    "abi": [
        {
            "inputs": [],
            "stateMutability": "nonpayable",
            "type": "constructor"
        },
        {
            "anonymous": false,
            "inputs": [
                {
                    "indexed": true,
                    "internalType": "address",
                    "name": "owner",
                    "type": "address"
                },
                {
                    "indexed": true,
                    "internalType": "address",
                    "name": "approved",
                    "type": "address"
                },
                {
                    "indexed": true,
                    "internalType": "uint256",
                    "name": "tokenId",
                    "type": "uint256"
                }
            ],
            "name": "Approval",
            "type": "event"
        },
        {
            "anonymous": false,
            "inputs": [
                {
                    "indexed": true,
                    "internalType": "address",
                    "name": "owner",
                    "type": "address"
                },
                {
                    "indexed": true,
                    "internalType": "address",
                    "name": "operator",
                    "type": "address"
                },
                {
                    "indexed": false,
                    "internalType": "bool",
                    "name": "approved",
                    "type": "bool"
                }
            ],
            "name": "ApprovalForAll",
            "type": "event"
        },
        {
            "anonymous": false,
            "inputs": [
                {
                    "indexed": true,
                    "internalType": "address",
                    "name": "from",
                    "type": "address"
                },
                {
                    "indexed": true,
                    "internalType": "address",
                    "name": "to",
                    "type": "address"
                },
                {
                    "indexed": true,
                    "internalType": "uint256",
                    "name": "tokenId",
                    "type": "uint256"
                }
            ],
            "name": "Transfer",
            "type": "event"
        },
        {
            "inputs": [
                {
                    "internalType": "address",
                    "name": "to",
                    "type": "address"
                },
                {
                    "internalType": "uint256",
                    "name": "tokenId",
                    "type": "uint256"
                }
            ],
            "name": "approve",
            "outputs": [],
            "stateMutability": "nonpayable",
            "type": "function"
        },
        {
            "inputs": [
                {
                    "internalType": "address",
                    "name": "owner",
                    "type": "address"
                }
            ],
            "name": "balanceOf",
            "outputs": [
                {
                    "internalType": "uint256",
                    "name": "",
                    "type": "uint256"
                }
            ],
            "stateMutability": "view",
            "type": "function"
        },
        {
            "inputs": [
                {
                    "internalType": "uint256",
                    "name": "tokenId",
                    "type": "uint256"
                }
            ],
            "name": "getApproved",
            "outputs": [
                {
                    "internalType": "address",
                    "name": "",
                    "type": "address"
                }
            ],
            "stateMutability": "view",
            "type": "function"
        },
        {
            "inputs": [
                {
                    "internalType": "address",
                    "name": "owner",
                    "type": "address"
                },
                {
                    "internalType": "address",
                    "name": "operator",
                    "type": "address"
                }
            ],
            "name": "isApprovedForAll",
            "outputs": [
                {
                    "internalType": "bool",
                    "name": "",
                    "type": "bool"
                }
            ],
            "stateMutability": "view",
            "type": "function"
        },
        {
            "inputs": [],
            "name": "makeAnEpicNFT",
            "outputs": [],
            "stateMutability": "nonpayable",
            "type": "function"
        },
        {
            "inputs": [],
            "name": "name",
            "outputs": [
                {
                    "internalType": "string",
                    "name": "",
                    "type": "string"
                }
            ],
            "stateMutability": "view",
            "type": "function"
        },
        {
            "inputs": [
                {
                    "internalType": "uint256",
                    "name": "tokenId",
                    "type": "uint256"
                }
            ],
            "name": "ownerOf",
            "outputs": [
                {
                    "internalType": "address",
                    "name": "",
                    "type": "address"
                }
            ],
            "stateMutability": "view",
            "type": "function"
        },
        {
            "inputs": [
                {
                    "internalType": "uint256",
                    "name": "tokenId",
                    "type": "uint256"
                }
            ],
            "name": "pickRandomBackground",
            "outputs": [
                {
                    "internalType": "string",
                    "name": "",
                    "type": "string"
                }
            ],
            "stateMutability": "view",
            "type": "function"
        },
        {
            "inputs": [
                {
                    "internalType": "uint256",
                    "name": "tokenId",
                    "type": "uint256"
                }
            ],
            "name": "pickRandomFirstWord",
            "outputs": [
                {
                    "internalType": "string",
                    "name": "",
                    "type": "string"
                }
            ],
            "stateMutability": "view",
            "type": "function"
        },
        {
            "inputs": [
                {
                    "internalType": "uint256",
                    "name": "tokenId",
                    "type": "uint256"
                }
            ],
            "name": "pickRandomSecondWord",
            "outputs": [
                {
                    "internalType": "string",
                    "name": "",
                    "type": "string"
                }
            ],
            "stateMutability": "view",
            "type": "function"
        },
        {
            "inputs": [
                {
                    "internalType": "address",
                    "name": "from",
                    "type": "address"
                },
                {
                    "internalType": "address",
                    "name": "to",
                    "type": "address"
                },
                {
                    "internalType": "uint256",
                    "name": "tokenId",
                    "type": "uint256"
                }
            ],
            "name": "safeTransferFrom",
            "outputs": [],
            "stateMutability": "nonpayable",
            "type": "function"
        },
        {
            "inputs": [
                {
                    "internalType": "address",
                    "name": "from",
                    "type": "address"
                },
                {
                    "internalType": "address",
                    "name": "to",
                    "type": "address"
                },
                {
                    "internalType": "uint256",
                    "name": "tokenId",
                    "type": "uint256"
                },
                {
                    "internalType": "bytes",
                    "name": "_data",
                    "type": "bytes"
                }
            ],
            "name": "safeTransferFrom",
            "outputs": [],
            "stateMutability": "nonpayable",
            "type": "function"
        },
        {
            "inputs": [
                {
                    "internalType": "address",
                    "name": "operator",
                    "type": "address"
                },
                {
                    "internalType": "bool",
                    "name": "approved",
                    "type": "bool"
                }
            ],
            "name": "setApprovalForAll",
            "outputs": [],
            "stateMutability": "nonpayable",
            "type": "function"
        },
        {
            "inputs": [
                {
                    "internalType": "bytes4",
                    "name": "interfaceId",
                    "type": "bytes4"
                }
            ],
            "name": "supportsInterface",
            "outputs": [
                {
                    "internalType": "bool",
                    "name": "",
                    "type": "bool"
                }
            ],
            "stateMutability": "view",
            "type": "function"
        },
        {
            "inputs": [],
            "name": "symbol",
            "outputs": [
                {
                    "internalType": "string",
                    "name": "",
                    "type": "string"
                }
            ],
            "stateMutability": "view",
            "type": "function"
        },
        {
            "inputs": [
                {
                    "internalType": "uint256",
                    "name": "tokenId",
                    "type": "uint256"
                }
            ],
            "name": "tokenURI",
            "outputs": [
                {
                    "internalType": "string",
                    "name": "",
                    "type": "string"
                }
            ],
            "stateMutability": "view",
            "type": "function"
        },
        {
            "inputs": [
                {
                    "internalType": "address",
                    "name": "from",
                    "type": "address"
                },
                {
                    "internalType": "address",
                    "name": "to",
                    "type": "address"
                },
                {
                    "internalType": "uint256",
                    "name": "tokenId",
                    "type": "uint256"
                }
            ],
            "name": "transferFrom",
            "outputs": [],
            "stateMutability": "nonpayable",
            "type": "function"
        }
    ],
    "bytecode": "0x608060405260405180610120016040528060e481526020016200465260e49139600890805190602001906200003692919062000600565b506040518060e0016040528060b28152602001620043d360b29139600990805190602001906200006892919062000600565b506040518061014001604052806101198152602001620045396101199139600a90805190602001906200009d92919062000600565b506040518060400160405280600d81526020017f3c2f746578743e3c2f7376673e00000000000000000000000000000000000000815250600b9080519060200190620000eb92919062000600565b506040518060a00160405280604051806101a0016040528061017881526020016200473661017891398152602001604051806101e001604052806101a58152602001620040726101a59139815260200160405180610160016040528061012b8152602001620048ae61012b913981526020016040518060e0016040528060b481526020016200448560b491398152602001604051806101e001604052806101bc8152602001620042176101bc9139815250600c906005620001ae92919062000691565b506040518060a001604052806040518060400160405280600781526020017f42756c6c6973680000000000000000000000000000000000000000000000000081525081526020016040518060400160405280600781526020017f426561726973680000000000000000000000000000000000000000000000000081525081526020016040518060400160405280600481526020017f457069630000000000000000000000000000000000000000000000000000000081525081526020016040518060400160405280600681526020017f526f636b6574000000000000000000000000000000000000000000000000000081525081526020016040518060400160405280600381526020017f4469700000000000000000000000000000000000000000000000000000000000815250815250600d906005620002f192919062000691565b506040518060a001604052806040518060400160405280600381526020017f455448000000000000000000000000000000000000000000000000000000000081525081526020016040518060400160405280600381526020017f425443000000000000000000000000000000000000000000000000000000000081525081526020016040518060400160405280600381526020017f444f54000000000000000000000000000000000000000000000000000000000081525081526020016040518060400160405280600481526020017f4c554e410000000000000000000000000000000000000000000000000000000081525081526020016040518060400160405280600381526020017f5645540000000000000000000000000000000000000000000000000000000000815250815250600e9060056200043492919062000691565b503480156200044257600080fd5b506040518060400160405280600881526020017f4d6f6368694e46540000000000000000000000000000000000000000000000008152506040518060400160405280600581526020017f4d4f4348490000000000000000000000000000000000000000000000000000008152508160009080519060200190620004c792919062000600565b508060019080519060200190620004e092919062000600565b5050506200052e6040518060400160405280600581526020017f47756175210000000000000000000000000000000000000000000000000000008152506200053460201b620011fb1760201c565b620008b2565b620005d4816040516024016200054b9190620007c6565b6040516020818303038152906040527f41304fac000000000000000000000000000000000000000000000000000000007bffffffffffffffffffffffffffffffffffffffffffffffffffffffff19166020820180517bffffffffffffffffffffffffffffffffffffffffffffffffffffffff8381831617835250505050620005d760201b60201c565b50565b60008151905060006a636f6e736f6c652e6c6f679050602083016000808483855afa5050505050565b8280546200060e906200083c565b90600052602060002090601f0160209004810192826200063257600085556200067e565b82601f106200064d57805160ff19168380011785556200067e565b828001600101855582156200067e579182015b828111156200067d57825182559160200191906001019062000660565b5b5090506200068d9190620006f8565b5090565b828054828255906000526020600020908101928215620006e5579160200282015b82811115620006e4578251829080519060200190620006d392919062000600565b5091602001919060010190620006b2565b5b509050620006f4919062000717565b5090565b5b8082111562000713576000816000905550600101620006f9565b5090565b5b808211156200073b57600081816200073191906200073f565b5060010162000718565b5090565b5080546200074d906200083c565b6000825580601f1062000761575062000782565b601f016020900490600052602060002090810190620007819190620006f8565b5b50565b60006200079282620007ea565b6200079e8185620007f5565b9350620007b081856020860162000806565b620007bb81620008a1565b840191505092915050565b60006020820190508181036000830152620007e2818462000785565b905092915050565b600081519050919050565b600082825260208201905092915050565b60005b838110156200082657808201518184015260208101905062000809565b8381111562000836576000848401525b50505050565b600060028204905060018216806200085557607f821691505b602082108114156200086c576200086b62000872565b5b50919050565b7f4e487b7100000000000000000000000000000000000000000000000000000000600052602260045260246000fd5b6000601f19601f8301169050919050565b6137b080620008c26000396000f3fe608060405234801561001057600080fd5b506004361061010b5760003560e01c80636352211e116100a2578063b187301f11610071578063b187301f146102dc578063b88d4fde1461030c578063c87b56dd14610328578063de9d132f14610358578063e985e9c5146103625761010b565b80636352211e1461024257806370a082311461027257806395d89b41146102a2578063a22cb465146102c05761010b565b806323b872dd116100de57806323b872dd146101aa5780632de38d68146101c657806342842e0e146101f65780635068d1de146102125761010b565b806301ffc9a71461011057806306fdde0314610140578063081812fc1461015e578063095ea7b31461018e575b600080fd5b61012a6004803603810190610125919061248e565b610392565b6040516101379190613026565b60405180910390f35b610148610474565b6040516101559190613041565b60405180910390f35b610178600480360381019061017391906124e0565b610506565b6040516101859190612fbf565b60405180910390f35b6101a860048036038101906101a39190612452565b61058b565b005b6101c460048036038101906101bf919061234c565b6106a3565b005b6101e060048036038101906101db91906124e0565b610703565b6040516101ed9190613041565b60405180910390f35b610210600480360381019061020b919061234c565b610821565b005b61022c600480360381019061022791906124e0565b610841565b6040516102399190613041565b60405180910390f35b61025c600480360381019061025791906124e0565b61095f565b6040516102699190612fbf565b60405180910390f35b61028c600480360381019061028791906122e7565b610a11565b60405161029991906132a1565b60405180910390f35b6102aa610ac9565b6040516102b79190613041565b60405180910390f35b6102da60048036038101906102d59190612416565b610b5b565b005b6102f660048036038101906102f191906124e0565b610cdc565b6040516103039190613041565b60405180910390f35b6103266004803603810190610321919061239b565b610dfa565b005b610342600480360381019061033d91906124e0565b610e5c565b60405161034f9190613041565b60405180910390f35b610360610fae565b005b61037c60048036038101906103779190612310565b611167565b6040516103899190613026565b60405180910390f35b60007f80ac58cd000000000000000000000000000000000000000000000000000000007bffffffffffffffffffffffffffffffffffffffffffffffffffffffff1916827bffffffffffffffffffffffffffffffffffffffffffffffffffffffff1916148061045d57507f5b5e139f000000000000000000000000000000000000000000000000000000007bffffffffffffffffffffffffffffffffffffffffffffffffffffffff1916827bffffffffffffffffffffffffffffffffffffffffffffffffffffffff1916145b8061046d575061046c82611294565b5b9050919050565b60606000805461048390613540565b80601f01602080910402602001604051908101604052809291908181526020018280546104af90613540565b80156104fc5780601f106104d1576101008083540402835291602001916104fc565b820191906000526020600020905b8154815290600101906020018083116104df57829003601f168201915b5050505050905090565b6000610511826112fe565b610550576040517f08c379a000000000000000000000000000000000000000000000000000000000815260040161054790613201565b60405180910390fd5b6004600083815260200190815260200160002060009054906101000a900473ffffffffffffffffffffffffffffffffffffffff169050919050565b60006105968261095f565b90508073ffffffffffffffffffffffffffffffffffffffff168373ffffffffffffffffffffffffffffffffffffffff161415610607576040517f08c379a00000000000000000000000000000000000000000000000000000000081526004016105fe90613261565b60405180910390fd5b8073ffffffffffffffffffffffffffffffffffffffff1661062661136a565b73ffffffffffffffffffffffffffffffffffffffff16148061065557506106548161064f61136a565b611167565b5b610694576040517f08c379a000000000000000000000000000000000000000000000000000000000815260040161068b90613141565b60405180910390fd5b61069e8383611372565b505050565b6106b46106ae61136a565b8261142b565b6106f3576040517f08c379a00000000000000000000000000000000000000000000000000000000081526004016106ea90613281565b60405180910390fd5b6106fe838383611509565b505050565b6060600061073761071384611765565b6040516020016107239190612f59565b604051602081830303815290604052611912565b9050600d805490508161074a91906135bb565b9050600d8181548110610786577f4e487b7100000000000000000000000000000000000000000000000000000000600052603260045260246000fd5b90600052602060002001805461079b90613540565b80601f01602080910402602001604051908101604052809291908181526020018280546107c790613540565b80156108145780601f106107e957610100808354040283529160200191610814565b820191906000526020600020905b8154815290600101906020018083116107f757829003601f168201915b5050505050915050919050565b61083c83838360405180602001604052806000815250610dfa565b505050565b6060600061087561085184611765565b6040516020016108619190612f9d565b604051602081830303815290604052611912565b9050600c805490508161088891906135bb565b9050600c81815481106108c4577f4e487b7100000000000000000000000000000000000000000000000000000000600052603260045260246000fd5b9060005260206000200180546108d990613540565b80601f016020809104026020016040519081016040528092919081815260200182805461090590613540565b80156109525780601f1061092757610100808354040283529160200191610952565b820191906000526020600020905b81548152906001019060200180831161093557829003601f168201915b5050505050915050919050565b6000806002600084815260200190815260200160002060009054906101000a900473ffffffffffffffffffffffffffffffffffffffff169050600073ffffffffffffffffffffffffffffffffffffffff168173ffffffffffffffffffffffffffffffffffffffff161415610a08576040517f08c379a00000000000000000000000000000000000000000000000000000000081526004016109ff90613181565b60405180910390fd5b80915050919050565b60008073ffffffffffffffffffffffffffffffffffffffff168273ffffffffffffffffffffffffffffffffffffffff161415610a82576040517f08c379a0000000000000000000000000000000000000000000000000000000008152600401610a7990613161565b60405180910390fd5b600360008373ffffffffffffffffffffffffffffffffffffffff1673ffffffffffffffffffffffffffffffffffffffff168152602001908152602001600020549050919050565b606060018054610ad890613540565b80601f0160208091040260200160405190810160405280929190818152602001828054610b0490613540565b8015610b515780601f10610b2657610100808354040283529160200191610b51565b820191906000526020600020905b815481529060010190602001808311610b3457829003601f168201915b5050505050905090565b610b6361136a565b73ffffffffffffffffffffffffffffffffffffffff168273ffffffffffffffffffffffffffffffffffffffff161415610bd1576040517f08c379a0000000000000000000000000000000000000000000000000000000008152600401610bc890613101565b60405180910390fd5b8060056000610bde61136a565b73ffffffffffffffffffffffffffffffffffffffff1673ffffffffffffffffffffffffffffffffffffffff16815260200190815260200160002060008473ffffffffffffffffffffffffffffffffffffffff1673ffffffffffffffffffffffffffffffffffffffff16815260200190815260200160002060006101000a81548160ff0219169083151502179055508173ffffffffffffffffffffffffffffffffffffffff16610c8b61136a565b73ffffffffffffffffffffffffffffffffffffffff167f17307eab39ab6107e8899845ad3d59bd9653f200f220920489ca2b5937696c3183604051610cd09190613026565b60405180910390a35050565b60606000610d10610cec84611765565b604051602001610cfc9190612ef2565b604051602081830303815290604052611912565b9050600e8054905081610d2391906135bb565b9050600e8181548110610d5f577f4e487b7100000000000000000000000000000000000000000000000000000000600052603260045260246000fd5b906000526020600020018054610d7490613540565b80601f0160208091040260200160405190810160405280929190818152602001828054610da090613540565b8015610ded5780601f10610dc257610100808354040283529160200191610ded565b820191906000526020600020905b815481529060010190602001808311610dd057829003601f168201915b5050505050915050919050565b610e0b610e0561136a565b8361142b565b610e4a576040517f08c379a0000000000000000000000000000000000000000000000000000000008152600401610e4190613281565b60405180910390fd5b610e5684848484611945565b50505050565b6060610e67826112fe565b610ea6576040517f08c379a0000000000000000000000000000000000000000000000000000000008152600401610e9d906131e1565b60405180910390fd5b6000600660008481526020019081526020016000208054610ec690613540565b80601f0160208091040260200160405190810160405280929190818152602001828054610ef290613540565b8015610f3f5780601f10610f1457610100808354040283529160200191610f3f565b820191906000526020600020905b815481529060010190602001808311610f2257829003601f168201915b505050505090506000610f506119a1565b9050600081511415610f66578192505050610fa9565b600082511115610f9b578082604051602001610f83929190612e69565b60405160208183030381529060405292505050610fa9565b610fa4846119b8565b925050505b919050565b6000610fba6007611a5f565b90506000610fc782610841565b90506000610fd483610703565b90506000610fe184610cdc565b905060008282604051602001610ff8929190612e69565b604051602081830303815290604052905060006008856009600a8787600b60405160200161102c9796959493929190612e8d565b604051602081830303815290604052905060006110718361104c84611a6d565b60405160200161105d929190612f14565b604051602081830303815290604052611a6d565b90506000816040516020016110869190612f7b565b60405160208183030381529060405290506110d56040518060400160405280601581526020017f0a2d2d2d2d2d2d2d2d2d2d2d2d2d2d2d2d2d2d2d2d00000000000000000000008152506111fb565b6110de816111fb565b61111c6040518060400160405280601581526020017f2d2d2d2d2d2d2d2d2d2d2d2d2d2d2d2d2d2d2d2d0a00000000000000000000008152506111fb565b6111263389611c2b565b6111308882611c49565b611153604051806060016040528060258152602001613716602591398933611cbd565b61115d6007611d5c565b5050505050505050565b6000600560008473ffffffffffffffffffffffffffffffffffffffff1673ffffffffffffffffffffffffffffffffffffffff16815260200190815260200160002060008373ffffffffffffffffffffffffffffffffffffffff1673ffffffffffffffffffffffffffffffffffffffff16815260200190815260200160002060009054906101000a900460ff16905092915050565b6112918160405160240161120f9190613041565b6040516020818303038152906040527f41304fac000000000000000000000000000000000000000000000000000000007bffffffffffffffffffffffffffffffffffffffffffffffffffffffff19166020820180517bffffffffffffffffffffffffffffffffffffffffffffffffffffffff8381831617835250505050611d72565b50565b60007f01ffc9a7000000000000000000000000000000000000000000000000000000007bffffffffffffffffffffffffffffffffffffffffffffffffffffffff1916827bffffffffffffffffffffffffffffffffffffffffffffffffffffffff1916149050919050565b60008073ffffffffffffffffffffffffffffffffffffffff166002600084815260200190815260200160002060009054906101000a900473ffffffffffffffffffffffffffffffffffffffff1673ffffffffffffffffffffffffffffffffffffffff1614159050919050565b600033905090565b816004600083815260200190815260200160002060006101000a81548173ffffffffffffffffffffffffffffffffffffffff021916908373ffffffffffffffffffffffffffffffffffffffff160217905550808273ffffffffffffffffffffffffffffffffffffffff166113e58361095f565b73ffffffffffffffffffffffffffffffffffffffff167f8c5be1e5ebec7d5bd14f71427d1e84f3dd0314c0f7b2291e5b200ac8c7c3b92560405160405180910390a45050565b6000611436826112fe565b611475576040517f08c379a000000000000000000000000000000000000000000000000000000000815260040161146c90613121565b60405180910390fd5b60006114808361095f565b90508073ffffffffffffffffffffffffffffffffffffffff168473ffffffffffffffffffffffffffffffffffffffff1614806114ef57508373ffffffffffffffffffffffffffffffffffffffff166114d784610506565b73ffffffffffffffffffffffffffffffffffffffff16145b8061150057506114ff8185611167565b5b91505092915050565b8273ffffffffffffffffffffffffffffffffffffffff166115298261095f565b73ffffffffffffffffffffffffffffffffffffffff161461157f576040517f08c379a000000000000000000000000000000000000000000000000000000000815260040161157690613221565b60405180910390fd5b600073ffffffffffffffffffffffffffffffffffffffff168273ffffffffffffffffffffffffffffffffffffffff1614156115ef576040517f08c379a00000000000000000000000000000000000000000000000000000000081526004016115e6906130e1565b60405180910390fd5b6115fa838383611d9b565b611605600082611372565b6001600360008573ffffffffffffffffffffffffffffffffffffffff1673ffffffffffffffffffffffffffffffffffffffff16815260200190815260200160002060008282546116559190613456565b925050819055506001600360008473ffffffffffffffffffffffffffffffffffffffff1673ffffffffffffffffffffffffffffffffffffffff16815260200190815260200160002060008282546116ac9190613375565b92505081905550816002600083815260200190815260200160002060006101000a81548173ffffffffffffffffffffffffffffffffffffffff021916908373ffffffffffffffffffffffffffffffffffffffff160217905550808273ffffffffffffffffffffffffffffffffffffffff168473ffffffffffffffffffffffffffffffffffffffff167fddf252ad1be2c89b69c2b068fc378daa952ba7f163c4a11628f55a4df523b3ef60405160405180910390a4505050565b606060008214156117ad576040518060400160405280600181526020017f3000000000000000000000000000000000000000000000000000000000000000815250905061190d565b600082905060005b600082146117df5780806117c890613572565b915050600a826117d891906133cb565b91506117b5565b60008167ffffffffffffffff811115611821577f4e487b7100000000000000000000000000000000000000000000000000000000600052604160045260246000fd5b6040519080825280601f01601f1916602001820160405280156118535781602001600182028036833780820191505090505b5090505b600085146119065760018261186c9190613456565b9150600a8561187b91906135bb565b60306118879190613375565b60f81b8183815181106118c3577f4e487b7100000000000000000000000000000000000000000000000000000000600052603260045260246000fd5b60200101907effffffffffffffffffffffffffffffffffffffffffffffffffffffffffffff1916908160001a905350600a856118ff91906133cb565b9450611857565b8093505050505b919050565b6000816040516020016119259190612e52565b6040516020818303038152906040528051906020012060001c9050919050565b611950848484611509565b61195c84848484611da0565b61199b576040517f08c379a0000000000000000000000000000000000000000000000000000000008152600401611992906130a1565b60405180910390fd5b50505050565b606060405180602001604052806000815250905090565b60606119c3826112fe565b611a02576040517f08c379a00000000000000000000000000000000000000000000000000000000081526004016119f990613241565b60405180910390fd5b6000611a0c6119a1565b90506000815111611a2c5760405180602001604052806000815250611a57565b80611a3684611765565b604051602001611a47929190612e69565b6040516020818303038152906040525b915050919050565b600081600001549050919050565b60606000825190506000811415611a965760405180602001604052806000815250915050611c26565b60006003600283611aa79190613375565b611ab191906133cb565b6004611abd91906133fc565b90506000602082611ace9190613375565b67ffffffffffffffff811115611b0d577f4e487b7100000000000000000000000000000000000000000000000000000000600052604160045260246000fd5b6040519080825280601f01601f191660200182016040528015611b3f5781602001600182028036833780820191505090505b509050600060405180606001604052806040815260200161373b604091399050600181016020830160005b86811015611be35760038101905062ffffff818a015116603f8160121c168401518060081b905060ff603f83600c1c1686015116810190508060081b905060ff603f8360061c1686015116810190508060081b905060ff603f831686015116810190508060e01b90508084526004840193505050611b6a565b506003860660018114611bfd5760028114611c0d57611c18565b613d3d60f01b6002830352611c18565b603d60f81b60018303525b508484525050819450505050505b919050565b611c45828260405180602001604052806000815250611f37565b5050565b611c52826112fe565b611c91576040517f08c379a0000000000000000000000000000000000000000000000000000000008152600401611c88906131a1565b60405180910390fd5b80600660008481526020019081526020016000209080519060200190611cb8929190612173565b505050565b611d57838383604051602401611cd593929190613063565b6040516020818303038152906040527fe3849f79000000000000000000000000000000000000000000000000000000007bffffffffffffffffffffffffffffffffffffffffffffffffffffffff19166020820180517bffffffffffffffffffffffffffffffffffffffffffffffffffffffff8381831617835250505050611d72565b505050565b6001816000016000828254019250508190555050565b60008151905060006a636f6e736f6c652e6c6f679050602083016000808483855afa5050505050565b505050565b6000611dc18473ffffffffffffffffffffffffffffffffffffffff16611f92565b15611f2a578373ffffffffffffffffffffffffffffffffffffffff1663150b7a02611dea61136a565b8786866040518563ffffffff1660e01b8152600401611e0c9493929190612fda565b602060405180830381600087803b158015611e2657600080fd5b505af1925050508015611e5757506040513d601f19601f82011682018060405250810190611e5491906124b7565b60015b611eda573d8060008114611e87576040519150601f19603f3d011682016040523d82523d6000602084013e611e8c565b606091505b50600081511415611ed2576040517f08c379a0000000000000000000000000000000000000000000000000000000008152600401611ec9906130a1565b60405180910390fd5b805181602001fd5b63150b7a0260e01b7bffffffffffffffffffffffffffffffffffffffffffffffffffffffff1916817bffffffffffffffffffffffffffffffffffffffffffffffffffffffff191614915050611f2f565b600190505b949350505050565b611f418383611fa5565b611f4e6000848484611da0565b611f8d576040517f08c379a0000000000000000000000000000000000000000000000000000000008152600401611f84906130a1565b60405180910390fd5b505050565b600080823b905060008111915050919050565b600073ffffffffffffffffffffffffffffffffffffffff168273ffffffffffffffffffffffffffffffffffffffff161415612015576040517f08c379a000000000000000000000000000000000000000000000000000000000815260040161200c906131c1565b60405180910390fd5b61201e816112fe565b1561205e576040517f08c379a0000000000000000000000000000000000000000000000000000000008152600401612055906130c1565b60405180910390fd5b61206a60008383611d9b565b6001600360008473ffffffffffffffffffffffffffffffffffffffff1673ffffffffffffffffffffffffffffffffffffffff16815260200190815260200160002060008282546120ba9190613375565b92505081905550816002600083815260200190815260200160002060006101000a81548173ffffffffffffffffffffffffffffffffffffffff021916908373ffffffffffffffffffffffffffffffffffffffff160217905550808273ffffffffffffffffffffffffffffffffffffffff16600073ffffffffffffffffffffffffffffffffffffffff167fddf252ad1be2c89b69c2b068fc378daa952ba7f163c4a11628f55a4df523b3ef60405160405180910390a45050565b82805461217f90613540565b90600052602060002090601f0160209004810192826121a157600085556121e8565b82601f106121ba57805160ff19168380011785556121e8565b828001600101855582156121e8579182015b828111156121e75782518255916020019190600101906121cc565b5b5090506121f591906121f9565b5090565b5b808211156122125760008160009055506001016121fa565b5090565b6000612229612224846132ed565b6132bc565b90508281526020810184848401111561224157600080fd5b61224c8482856134fe565b509392505050565b600081359050612263816136b9565b92915050565b600081359050612278816136d0565b92915050565b60008135905061228d816136e7565b92915050565b6000815190506122a2816136e7565b92915050565b600082601f8301126122b957600080fd5b81356122c9848260208601612216565b91505092915050565b6000813590506122e1816136fe565b92915050565b6000602082840312156122f957600080fd5b600061230784828501612254565b91505092915050565b6000806040838503121561232357600080fd5b600061233185828601612254565b925050602061234285828601612254565b9150509250929050565b60008060006060848603121561236157600080fd5b600061236f86828701612254565b935050602061238086828701612254565b9250506040612391868287016122d2565b9150509250925092565b600080600080608085870312156123b157600080fd5b60006123bf87828801612254565b94505060206123d087828801612254565b93505060406123e1878288016122d2565b925050606085013567ffffffffffffffff8111156123fe57600080fd5b61240a878288016122a8565b91505092959194509250565b6000806040838503121561242957600080fd5b600061243785828601612254565b925050602061244885828601612269565b9150509250929050565b6000806040838503121561246557600080fd5b600061247385828601612254565b9250506020612484858286016122d2565b9150509250929050565b6000602082840312156124a057600080fd5b60006124ae8482850161227e565b91505092915050565b6000602082840312156124c957600080fd5b60006124d784828501612293565b91505092915050565b6000602082840312156124f257600080fd5b6000612500848285016122d2565b91505092915050565b6125128161348a565b82525050565b6125218161349c565b82525050565b600061253282613332565b61253c8185613348565b935061254c81856020860161350d565b612555816136a8565b840191505092915050565b600061256b8261333d565b6125758185613359565b935061258581856020860161350d565b61258e816136a8565b840191505092915050565b60006125a48261333d565b6125ae818561336a565b93506125be81856020860161350d565b80840191505092915050565b600081546125d781613540565b6125e1818661336a565b945060018216600081146125fc576001811461260d57612640565b60ff19831686528186019350612640565b6126168561331d565b60005b8381101561263857815481890152600182019150602081019050612619565b838801955050505b50505092915050565b6000612656603283613359565b91507f4552433732313a207472616e7366657220746f206e6f6e20455243373231526560008301527f63656976657220696d706c656d656e74657200000000000000000000000000006020830152604082019050919050565b60006126bc601c83613359565b91507f4552433732313a20746f6b656e20616c7265616479206d696e746564000000006000830152602082019050919050565b60006126fc602483613359565b91507f4552433732313a207472616e7366657220746f20746865207a65726f2061646460008301527f72657373000000000000000000000000000000000000000000000000000000006020830152604082019050919050565b6000612762601983613359565b91507f4552433732313a20617070726f766520746f2063616c6c6572000000000000006000830152602082019050919050565b60006127a2600b8361336a565b91507f5345434f4e445f574f52440000000000000000000000000000000000000000006000830152600b82019050919050565b60006127e2602c83613359565b91507f4552433732313a206f70657261746f7220717565727920666f72206e6f6e657860008301527f697374656e7420746f6b656e00000000000000000000000000000000000000006020830152604082019050919050565b6000612848603883613359565b91507f4552433732313a20617070726f76652063616c6c6572206973206e6f74206f7760008301527f6e6572206e6f7220617070726f76656420666f7220616c6c00000000000000006020830152604082019050919050565b60006128ae602a83613359565b91507f4552433732313a2062616c616e636520717565727920666f7220746865207a6560008301527f726f2061646472657373000000000000000000000000000000000000000000006020830152604082019050919050565b6000612914602983613359565b91507f4552433732313a206f776e657220717565727920666f72206e6f6e657869737460008301527f656e7420746f6b656e00000000000000000000000000000000000000000000006020830152604082019050919050565b600061297a602e83613359565b91507f45524337323155524953746f726167653a2055524920736574206f66206e6f6e60008301527f6578697374656e7420746f6b656e0000000000000000000000000000000000006020830152604082019050919050565b60006129e060028361336a565b91507f227d0000000000000000000000000000000000000000000000000000000000006000830152600282019050919050565b6000612a20602083613359565b91507f4552433732313a206d696e7420746f20746865207a65726f20616464726573736000830152602082019050919050565b6000612a60603183613359565b91507f45524337323155524953746f726167653a2055524920717565727920666f722060008301527f6e6f6e6578697374656e7420746f6b656e0000000000000000000000000000006020830152604082019050919050565b6000612ac6602c83613359565b91507f4552433732313a20617070726f76656420717565727920666f72206e6f6e657860008301527f697374656e7420746f6b656e00000000000000000000000000000000000000006020830152604082019050919050565b6000612b2c602983613359565b91507f4552433732313a207472616e73666572206f6620746f6b656e2074686174206960008301527f73206e6f74206f776e00000000000000000000000000000000000000000000006020830152604082019050919050565b6000612b92602f83613359565b91507f4552433732314d657461646174613a2055524920717565727920666f72206e6f60008301527f6e6578697374656e7420746f6b656e00000000000000000000000000000000006020830152604082019050919050565b6000612bf8600a8361336a565b91507f7b226e616d65223a2022000000000000000000000000000000000000000000006000830152600a82019050919050565b6000612c38602183613359565b91507f4552433732313a20617070726f76616c20746f2063757272656e74206f776e6560008301527f72000000000000000000000000000000000000000000000000000000000000006020830152604082019050919050565b6000612c9e600a8361336a565b91507f46495253545f574f5244000000000000000000000000000000000000000000006000830152600a82019050919050565b6000612cde601d8361336a565b91507f646174613a6170706c69636174696f6e2f6a736f6e3b6261736536342c0000006000830152601d82019050919050565b6000612d1e603183613359565b91507f4552433732313a207472616e736665722063616c6c6572206973206e6f74206f60008301527f776e6572206e6f7220617070726f7665640000000000000000000000000000006020830152604082019050919050565b6000612d84600a8361336a565b91507f4241434b47524f554e44000000000000000000000000000000000000000000006000830152600a82019050919050565b6000612dc460598361336a565b91507f222c20226465736372697074696f6e223a2022412072616e646f6d206665656c60008301527f696e67206f6e20736f6d6520746f6b656e73222c2022696d616765223a20226460208301527f6174613a696d6167652f7376672b786d6c3b6261736536342c000000000000006040830152605982019050919050565b612e4c816134f4565b82525050565b6000612e5e8284612599565b915081905092915050565b6000612e758285612599565b9150612e818284612599565b91508190509392505050565b6000612e99828a6125ca565b9150612ea58289612599565b9150612eb182886125ca565b9150612ebd82876125ca565b9150612ec98286612599565b9150612ed58285612599565b9150612ee182846125ca565b915081905098975050505050505050565b6000612efd82612795565b9150612f098284612599565b915081905092915050565b6000612f1f82612beb565b9150612f2b8285612599565b9150612f3682612db7565b9150612f428284612599565b9150612f4d826129d3565b91508190509392505050565b6000612f6482612c91565b9150612f708284612599565b915081905092915050565b6000612f8682612cd1565b9150612f928284612599565b915081905092915050565b6000612fa882612d77565b9150612fb48284612599565b915081905092915050565b6000602082019050612fd46000830184612509565b92915050565b6000608082019050612fef6000830187612509565b612ffc6020830186612509565b6130096040830185612e43565b818103606083015261301b8184612527565b905095945050505050565b600060208201905061303b6000830184612518565b92915050565b6000602082019050818103600083015261305b8184612560565b905092915050565b6000606082019050818103600083015261307d8186612560565b905061308c6020830185612e43565b6130996040830184612509565b949350505050565b600060208201905081810360008301526130ba81612649565b9050919050565b600060208201905081810360008301526130da816126af565b9050919050565b600060208201905081810360008301526130fa816126ef565b9050919050565b6000602082019050818103600083015261311a81612755565b9050919050565b6000602082019050818103600083015261313a816127d5565b9050919050565b6000602082019050818103600083015261315a8161283b565b9050919050565b6000602082019050818103600083015261317a816128a1565b9050919050565b6000602082019050818103600083015261319a81612907565b9050919050565b600060208201905081810360008301526131ba8161296d565b9050919050565b600060208201905081810360008301526131da81612a13565b9050919050565b600060208201905081810360008301526131fa81612a53565b9050919050565b6000602082019050818103600083015261321a81612ab9565b9050919050565b6000602082019050818103600083015261323a81612b1f565b9050919050565b6000602082019050818103600083015261325a81612b85565b9050919050565b6000602082019050818103600083015261327a81612c2b565b9050919050565b6000602082019050818103600083015261329a81612d11565b9050919050565b60006020820190506132b66000830184612e43565b92915050565b6000604051905081810181811067ffffffffffffffff821117156132e3576132e2613679565b5b8060405250919050565b600067ffffffffffffffff82111561330857613307613679565b5b601f19601f8301169050602081019050919050565b60008190508160005260206000209050919050565b600081519050919050565b600081519050919050565b600082825260208201905092915050565b600082825260208201905092915050565b600081905092915050565b6000613380826134f4565b915061338b836134f4565b9250827fffffffffffffffffffffffffffffffffffffffffffffffffffffffffffffffff038211156133c0576133bf6135ec565b5b828201905092915050565b60006133d6826134f4565b91506133e1836134f4565b9250826133f1576133f061361b565b5b828204905092915050565b6000613407826134f4565b9150613412836134f4565b9250817fffffffffffffffffffffffffffffffffffffffffffffffffffffffffffffffff048311821515161561344b5761344a6135ec565b5b828202905092915050565b6000613461826134f4565b915061346c836134f4565b92508282101561347f5761347e6135ec565b5b828203905092915050565b6000613495826134d4565b9050919050565b60008115159050919050565b60007fffffffff0000000000000000000000000000000000000000000000000000000082169050919050565b600073ffffffffffffffffffffffffffffffffffffffff82169050919050565b6000819050919050565b82818337600083830152505050565b60005b8381101561352b578082015181840152602081019050613510565b8381111561353a576000848401525b50505050565b6000600282049050600182168061355857607f821691505b6020821081141561356c5761356b61364a565b5b50919050565b600061357d826134f4565b91507fffffffffffffffffffffffffffffffffffffffffffffffffffffffffffffffff8214156135b0576135af6135ec565b5b600182019050919050565b60006135c6826134f4565b91506135d1836134f4565b9250826135e1576135e061361b565b5b828206905092915050565b7f4e487b7100000000000000000000000000000000000000000000000000000000600052601160045260246000fd5b7f4e487b7100000000000000000000000000000000000000000000000000000000600052601260045260246000fd5b7f4e487b7100000000000000000000000000000000000000000000000000000000600052602260045260246000fd5b7f4e487b7100000000000000000000000000000000000000000000000000000000600052604160045260246000fd5b6000601f19601f8301169050919050565b6136c28161348a565b81146136cd57600080fd5b50565b6136d98161349c565b81146136e457600080fd5b50565b6136f0816134a8565b81146136fb57600080fd5b50565b613707816134f4565b811461371257600080fd5b5056fe416e204e465420772f20494420257320686173206265656e206d696e74656420746f2025734142434445464748494a4b4c4d4e4f505152535455565758595a6162636465666768696a6b6c6d6e6f707172737475767778797a303132333435363738392b2fa2646970667358221220df0ce319a57bc3bcbc739250171be413c5b633f8028d196c7f44715d562e126664736f6c634300080000333c726563742077696474683d273130302527206865696768743d2731303025272066696c6c3d2723326433373438272f3e3c636972636c652063783d273334272063793d2732302720723d2734272066696c6c3d2723346135353638272f3e3c636972636c652063783d2736272063793d2732302720723d2734272066696c6c3d2723346135353638272f3e3c636972636c652063783d273230272063793d2733342720723d2734272066696c6c3d2723346135353638272f3e3c636972636c652063783d273230272063793d27362720723d2734272066696c6c3d2723346135353638272f3e3c636972636c652063783d273334272063793d27362720723d2734272066696c6c3d2723316132303263272f3e3c636972636c652063783d2736272063793d2733342720723d2734272066696c6c3d2723316132303263272f3e3c636972636c652063783d273334272063793d2733342720723d2734272066696c6c3d2723316132303263272f3e3c636972636c652063783d2736272063793d27362720723d2734272066696c6c3d2723316132303263272f3e3c2f7061747465726e3e3c726563742077696474683d273130302527206865696768743d2731303025272066696c6c3d2723373032343539272f3e3c7061746820643d274d3020382e35612031312e352031312e352030203020312031312e352031312e356120382e3520382e3520302030203020382e3520382e357633612d31312e352d31312e352030203020312d31312e352d31312e35612d382e352d382e352030203020302d382e352d382e357a272066696c6c3d2723663665303565272f3e3c7061746820643d274d32302032382e356120382e352d382e3520302030203020382e352d382e35612031312e352d31312e352030203020312031312e352d31312e357633612d382e3520382e352030203020302d382e3520382e35612d31312e352031312e352030203020312d31312e352031312e357a4d32302036382e356120382e352d382e3520302030203020382e352d382e35612031312e352d31312e352030203020312031312e352d31312e357633612d382e3520382e352030203020302d382e3520382e35612d31312e352031312e352030203020312d31312e352031312e357a272066696c6c3d2723643639653265272f3e3c2f7061747465726e3e3c66696c74657220783d27302720793d2730272077696474683d273127206865696768743d2731272069643d27736f6c6964273e3c6665466c6f6f6420666c6f6f642d636f6c6f723d27626c61636b2720726573756c743d27626727202f3e3c66654d657267653e3c66654d657267654e6f646520696e3d276267272f3e3c66654d657267654e6f646520696e3d27536f7572636547726170686963272f3e3c2f66654d657267653e3c2f66696c7465723e3c726563742077696474683d273130302527206865696768743d2731303025272066696c6c3d2723316337656436272f3e3c7061746820643d274d2d31302033306836307634682d36307a4d2d31302d31306836307634682d3630272066696c6c3d2723666363343139272f3e3c7061746820643d274d2d31302031386836307634682d36307a4d2d31302d32326836307634682d36307a272066696c6c3d2723313836346162272f3e3c2f7061747465726e3e3c2f646566733e3c726563742066696c6c3d2775726c28237061747465726e2927206865696768743d2732303025272077696474683d2732303025272f3e3c7374796c653e2e62617365207b66696c6c3a2077686974653b20666f6e742d66616d696c793a205562756e74753b20666f6e742d73697a653a20313470783b20666f6e742d7765696768743a203730303b206261636b67726f756e642d636f6c6f723a626c61636b3b7d3c2f7374796c653e3c746578742066696c7465723d2775726c2823736f6c6964292720783d273530252720793d273530252720636c6173733d27626173652720646f6d696e616e742d626173656c696e653d276d6964646c652720746578742d616e63686f723d276d6964646c65273e3c73766720786d6c6e733d27687474703a2f2f7777772e77332e6f72672f323030302f73766727207072657365727665417370656374526174696f3d27784d696e594d696e206d656574272076696577426f783d273020302033353020333530273e3c646566733e3c7061747465726e2069643d277061747465726e272077696474683d27343027206865696768743d273430272076696577426f783d2730203020343020343027207061747465726e556e6974733d277573657253706163654f6e55736527207061747465726e5472616e73666f726d3d27726f74617465283029273e3c726563742077696474683d273130302527206865696768743d2731303025272066696c6c3d2723326134333635272f3e3c7061746820643d274d302032396120392d3920302030203020392d39612031312d31312030203020312031312d31317632612d3920392030203020302d392039612d31312031312030203020312d31312031317a4d302036396120392d3920302030203020392d39612031312d31312030203020312031312d31317632612d3920392030203020302d392039612d31312031312030203020312d31312031317a272066696c6c3d2723316132303263272f3e3c7061746820643d274d32302032392e356120392e352d392e3520302030203020392e352d392e35612031302e352d31302e352030203020312031302e352d31302e357631612d392e3520392e352030203020302d392e3520392e35612d31302e352031302e352030203020312d31302e352031302e357a272066696c6c3d2723656363393462272f3e3c2f7061747465726e3e3c726563742077696474683d273130302527206865696768743d2731303025272066696c6c3d2723354434303337272f3e3c7061746820643d274d30203430682d3130762d36306836304c343020304c33342036682d32387632387a272066696c6c3d2723334532373233272f3e3c7061746820643d274d343020307631306836307636304c302034304c36203334683238762d32387a272066696c6c3d2723373935353438272f3e3c7061746820643d274d343020307631306836307636304c302034304c30203430683430762d34307a272066696c6c3d2723334532373233272f3e3c7061746820643d274d30203430682d3130762d36306836304c343020304c34302030682d34307634307a272066696c6c3d2723373935353438272f3e3c2f7061747465726e3e",
    "linkReferences": {},
    "deployedLinkReferences": {}
}